{
  "_format": "hh-sol-artifact-1",
  "contractName": "Crowdfunding",
  "sourceName": "contracts/Crowdfunding.sol",
  "abi": [
    {
      "inputs": [],
      "stateMutability": "nonpayable",
      "type": "constructor"
    },
    {
      "anonymous": false,
      "inputs": [
        {
          "indexed": false,
          "internalType": "uint256",
          "name": "campaignId",
          "type": "uint256"
        },
        {
          "indexed": false,
          "internalType": "bool",
          "name": "successful",
          "type": "bool"
        }
      ],
      "name": "CampaignClosed",
      "type": "event"
    },
    {
      "anonymous": false,
      "inputs": [
        {
          "indexed": false,
          "internalType": "uint256",
          "name": "campaignId",
          "type": "uint256"
        },
        {
          "indexed": false,
          "internalType": "address",
          "name": "recipient",
          "type": "address"
        },
        {
          "indexed": false,
          "internalType": "uint256",
          "name": "goalAmount",
          "type": "uint256"
        },
        {
          "indexed": false,
          "internalType": "uint256",
          "name": "deadline",
          "type": "uint256"
        }
      ],
      "name": "CampaignCreated",
      "type": "event"
    },
    {
      "anonymous": false,
      "inputs": [
        {
          "indexed": false,
          "internalType": "uint256",
          "name": "campaignId",
          "type": "uint256"
        },
        {
          "indexed": false,
          "internalType": "address",
          "name": "donor",
          "type": "address"
        },
        {
          "indexed": false,
          "internalType": "uint256",
          "name": "amount",
          "type": "uint256"
        }
      ],
      "name": "Donated",
      "type": "event"
    },
    {
      "inputs": [],
      "name": "campaignCount",
      "outputs": [
        {
          "internalType": "uint256",
          "name": "",
          "type": "uint256"
        }
      ],
      "stateMutability": "view",
      "type": "function"
    },
    {
      "inputs": [
        {
          "internalType": "uint256",
          "name": "",
          "type": "uint256"
        }
      ],
      "name": "campaigns",
      "outputs": [
        {
          "internalType": "address payable",
          "name": "recipient",
          "type": "address"
        },
        {
          "internalType": "uint256",
          "name": "goalAmount",
          "type": "uint256"
        },
        {
          "internalType": "uint256",
          "name": "deadline",
          "type": "uint256"
        },
        {
          "internalType": "uint256",
          "name": "totalDonations",
          "type": "uint256"
        },
        {
          "internalType": "bool",
          "name": "isClosed",
          "type": "bool"
        }
      ],
      "stateMutability": "view",
      "type": "function"
    },
    {
      "inputs": [
        {
          "internalType": "uint256",
          "name": "campaignId",
          "type": "uint256"
        }
      ],
      "name": "closeCampaign",
      "outputs": [],
      "stateMutability": "nonpayable",
      "type": "function"
    },
    {
      "inputs": [
        {
          "internalType": "address payable",
          "name": "_recipient",
          "type": "address"
        },
        {
          "internalType": "uint256",
          "name": "_goalAmount",
          "type": "uint256"
        },
        {
          "internalType": "uint256",
          "name": "_deadline",
          "type": "uint256"
        }
      ],
      "name": "createCampaign",
      "outputs": [],
      "stateMutability": "nonpayable",
      "type": "function"
    },
    {
      "inputs": [
        {
          "internalType": "uint256",
          "name": "campaignId",
          "type": "uint256"
        }
      ],
      "name": "donate",
      "outputs": [],
      "stateMutability": "payable",
      "type": "function"
    },
    {
      "inputs": [
        {
          "internalType": "uint256",
          "name": "",
          "type": "uint256"
        },
        {
          "internalType": "address",
          "name": "",
          "type": "address"
        }
      ],
      "name": "donations",
      "outputs": [
        {
          "internalType": "uint256",
          "name": "",
          "type": "uint256"
        }
      ],
      "stateMutability": "view",
      "type": "function"
    },
    {
      "inputs": [
        {
          "internalType": "uint256",
          "name": "campaignId",
          "type": "uint256"
        }
      ],
      "name": "refund",
      "outputs": [],
      "stateMutability": "nonpayable",
      "type": "function"
    }
  ],
  "bytecode": "0x6080604052348015600f57600080fd5b506000600281905550611412806100276000396000f3fe6080604052600436106100705760003560e01c80637274e30d1161004e5780637274e30d14610108578063b0e1c1e114610133578063ee1554a31461015c578063f14faf6f1461019957610070565b8063141961bc14610075578063278ecde1146100b6578063461b6004146100df575b600080fd5b34801561008157600080fd5b5061009c60048036038101906100979190610b3a565b6101b5565b6040516100ad959493929190610bd2565b60405180910390f35b3480156100c257600080fd5b506100dd60048036038101906100d89190610b3a565b610218565b005b3480156100eb57600080fd5b5061010660048036038101906101019190610c51565b610403565b005b34801561011457600080fd5b5061011d6105c1565b60405161012a9190610ca4565b60405180910390f35b34801561013f57600080fd5b5061015a60048036038101906101559190610b3a565b6105c7565b005b34801561016857600080fd5b50610183600480360381019061017e9190610cfd565b610902565b6040516101909190610ca4565b60405180910390f35b6101b360048036038101906101ae9190610b3a565b610927565b005b60006020528060005260406000206000915090508060000160009054906101000a900473ffffffffffffffffffffffffffffffffffffffff16908060010154908060020154908060030154908060040160009054906101000a900460ff16905085565b600080600083815260200190815260200160002090508060040160009054906101000a900460ff1661027f576040517f08c379a000000000000000000000000000000000000000000000000000000000815260040161027690610d9a565b60405180910390fd5b80600101548160030154106102c9576040517f08c379a00000000000000000000000000000000000000000000000000000000081526004016102c090610e2c565b60405180910390fd5b60006001600084815260200190815260200160002060003373ffffffffffffffffffffffffffffffffffffffff1673ffffffffffffffffffffffffffffffffffffffff16815260200190815260200160002054905060008111610361576040517f08c379a000000000000000000000000000000000000000000000000000000000815260040161035890610e98565b60405180910390fd5b60006001600085815260200190815260200160002060003373ffffffffffffffffffffffffffffffffffffffff1673ffffffffffffffffffffffffffffffffffffffff168152602001908152602001600020819055503373ffffffffffffffffffffffffffffffffffffffff166108fc829081150290604051600060405180830381858888f193505050501580156103fd573d6000803e3d6000fd5b50505050565b60008211610446576040517f08c379a000000000000000000000000000000000000000000000000000000000815260040161043d90610f2a565b60405180910390fd5b428111610488576040517f08c379a000000000000000000000000000000000000000000000000000000000815260040161047f90610f96565b60405180910390fd5b6002600081548092919061049b90610fe5565b91905055506040518060a001604052808473ffffffffffffffffffffffffffffffffffffffff1681526020018381526020018281526020016000815260200160001515815250600080600254815260200190815260200160002060008201518160000160006101000a81548173ffffffffffffffffffffffffffffffffffffffff021916908373ffffffffffffffffffffffffffffffffffffffff16021790555060208201518160010155604082015181600201556060820151816003015560808201518160040160006101000a81548160ff0219169083151502179055509050507f91b289a829e71d811b8c69e4a24ba2d40d115d8a236e9a724cb3bb2d43cf72236002548484846040516105b4949392919061108c565b60405180910390a1505050565b60025481565b8060008082815260200190815260200160002060000160009054906101000a900473ffffffffffffffffffffffffffffffffffffffff1673ffffffffffffffffffffffffffffffffffffffff163373ffffffffffffffffffffffffffffffffffffffff161461066b576040517f08c379a000000000000000000000000000000000000000000000000000000000815260040161066290611143565b60405180910390fd5b600080600084815260200190815260200160002090508060040160009054906101000a900460ff16156106d3576040517f08c379a00000000000000000000000000000000000000000000000000000000081526004016106ca906111af565b60405180910390fd5b8060010154816003015410610790578060000160009054906101000a900473ffffffffffffffffffffffffffffffffffffffff1673ffffffffffffffffffffffffffffffffffffffff166108fc82600301549081150290604051600060405180830381858888f19350505050158015610750573d6000803e3d6000fd5b507fb08312190b5508b59f34a0cda3a5b1010da8272854d7556b9fc6e126c22fe49d8360016040516107839291906111cf565b60405180910390a16108e0565b6000600190505b60025481116108a45760006001600086815260200190815260200160002060003373ffffffffffffffffffffffffffffffffffffffff1673ffffffffffffffffffffffffffffffffffffffff168152602001908152602001600020541115610891573373ffffffffffffffffffffffffffffffffffffffff166108fc6001600087815260200190815260200160002060003373ffffffffffffffffffffffffffffffffffffffff1673ffffffffffffffffffffffffffffffffffffffff168152602001908152602001600020549081150290604051600060405180830381858888f1935050505015801561088f573d6000803e3d6000fd5b505b808061089c90610fe5565b915050610797565b507fb08312190b5508b59f34a0cda3a5b1010da8272854d7556b9fc6e126c22fe49d8360006040516108d79291906111cf565b60405180910390a15b60018160040160006101000a81548160ff021916908315150217905550505050565b6001602052816000526040600020602052806000526040600020600091509150505481565b8060008082815260200190815260200160002060040160009054906101000a900460ff161561098b576040517f08c379a000000000000000000000000000000000000000000000000000000000815260040161098290611244565b60405180910390fd5b816000808281526020019081526020016000206002015442106109e3576040517f08c379a00000000000000000000000000000000000000000000000000000000081526004016109da906112b0565b60405180910390fd5b6000806000858152602001908152602001600020905060003411610a3c576040517f08c379a0000000000000000000000000000000000000000000000000000000008152600401610a3390611342565b60405180910390fd5b34816003016000828254610a509190611362565b92505081905550346001600086815260200190815260200160002060003373ffffffffffffffffffffffffffffffffffffffff1673ffffffffffffffffffffffffffffffffffffffff1681526020019081526020016000206000828254610ab79190611362565b925050819055507f1b606d34afacd55873aba0fd274841a10c63e18455f2dffebad2fc60a36b2c83843334604051610af1939291906113a5565b60405180910390a150505050565b600080fd5b6000819050919050565b610b1781610b04565b8114610b2257600080fd5b50565b600081359050610b3481610b0e565b92915050565b600060208284031215610b5057610b4f610aff565b5b6000610b5e84828501610b25565b91505092915050565b600073ffffffffffffffffffffffffffffffffffffffff82169050919050565b6000610b9282610b67565b9050919050565b610ba281610b87565b82525050565b610bb181610b04565b82525050565b60008115159050919050565b610bcc81610bb7565b82525050565b600060a082019050610be76000830188610b99565b610bf46020830187610ba8565b610c016040830186610ba8565b610c0e6060830185610ba8565b610c1b6080830184610bc3565b9695505050505050565b610c2e81610b87565b8114610c3957600080fd5b50565b600081359050610c4b81610c25565b92915050565b600080600060608486031215610c6a57610c69610aff565b5b6000610c7886828701610c3c565b9350506020610c8986828701610b25565b9250506040610c9a86828701610b25565b9150509250925092565b6000602082019050610cb96000830184610ba8565b92915050565b6000610cca82610b67565b9050919050565b610cda81610cbf565b8114610ce557600080fd5b50565b600081359050610cf781610cd1565b92915050565b60008060408385031215610d1457610d13610aff565b5b6000610d2285828601610b25565b9250506020610d3385828601610ce8565b9150509250929050565b600082825260208201905092915050565b7f43616d706169676e206973206e6f7420636c6f73656420796574000000000000600082015250565b6000610d84601a83610d3d565b9150610d8f82610d4e565b602082019050919050565b60006020820190508181036000830152610db381610d77565b9050919050565b7f476f616c20616d6f756e742077617320726561636865642c206e6f207265667560008201527f6e64000000000000000000000000000000000000000000000000000000000000602082015250565b6000610e16602283610d3d565b9150610e2182610dba565b604082019050919050565b60006020820190508181036000830152610e4581610e09565b9050919050565b7f4e6f20646f6e6174696f6e7320746f20726566756e6400000000000000000000600082015250565b6000610e82601683610d3d565b9150610e8d82610e4c565b602082019050919050565b60006020820190508181036000830152610eb181610e75565b9050919050565b7f476f616c20616d6f756e74206d7573742062652067726561746572207468616e60008201527f207a65726f000000000000000000000000000000000000000000000000000000602082015250565b6000610f14602583610d3d565b9150610f1f82610eb8565b604082019050919050565b60006020820190508181036000830152610f4381610f07565b9050919050565b7f446561646c696e65206d75737420626520696e20746865206675747572650000600082015250565b6000610f80601e83610d3d565b9150610f8b82610f4a565b602082019050919050565b60006020820190508181036000830152610faf81610f73565b9050919050565b7f4e487b7100000000000000000000000000000000000000000000000000000000600052601160045260246000fd5b6000610ff082610b04565b91507fffffffffffffffffffffffffffffffffffffffffffffffffffffffffffffffff820361102257611021610fb6565b5b600182019050919050565b6000819050919050565b600061105261104d61104884610b67565b61102d565b610b67565b9050919050565b600061106482611037565b9050919050565b600061107682611059565b9050919050565b6110868161106b565b82525050565b60006080820190506110a16000830187610ba8565b6110ae602083018661107d565b6110bb6040830185610ba8565b6110c86060830184610ba8565b95945050505050565b7f4f6e6c792074686520726563697069656e742063616e20636c6f73652074686560008201527f2063616d706169676e0000000000000000000000000000000000000000000000602082015250565b600061112d602983610d3d565b9150611138826110d1565b604082019050919050565b6000602082019050818103600083015261115c81611120565b9050919050565b7f43616d706169676e20697320616c726561647920636c6f736564000000000000600082015250565b6000611199601a83610d3d565b91506111a482611163565b602082019050919050565b600060208201905081810360008301526111c88161118c565b9050919050565b60006040820190506111e46000830185610ba8565b6111f16020830184610bc3565b9392505050565b7f546869732063616d706169676e20697320616c726561647920636c6f73656400600082015250565b600061122e601f83610d3d565b9150611239826111f8565b602082019050919050565b6000602082019050818103600083015261125d81611221565b9050919050565b7f54686520646561646c696e652068617320706173736564000000000000000000600082015250565b600061129a601783610d3d565b91506112a582611264565b602082019050919050565b600060208201905081810360008301526112c98161128d565b9050919050565b7f446f6e6174696f6e206d7573742062652067726561746572207468616e207a6560008201527f726f000000000000000000000000000000000000000000000000000000000000602082015250565b600061132c602283610d3d565b9150611337826112d0565b604082019050919050565b6000602082019050818103600083015261135b8161131f565b9050919050565b600061136d82610b04565b915061137883610b04565b92508282019050808211156113905761138f610fb6565b5b92915050565b61139f81610cbf565b82525050565b60006060820190506113ba6000830186610ba8565b6113c76020830185611396565b6113d46040830184610ba8565b94935050505056fea2646970667358221220c7811e35c8928c9f8c0ee1d2d1d213643caff973b112f40b6d528b588cb5920764736f6c634300081c0033",
  "linkReferences": {},
  "deployedLinkReferences": {}
}